{
  "_format": "hh-sol-artifact-1",
  "contractName": "Library",
  "sourceName": "contracts/Library.sol",
  "abi": [
    {
      "anonymous": false,
      "inputs": [
        {
          "indexed": false,
          "internalType": "address",
          "name": "recipient",
          "type": "address"
        },
        {
          "indexed": false,
          "internalType": "uint256",
          "name": "bookId",
          "type": "uint256"
        }
      ],
      "name": "AddBook",
      "type": "event"
    },
    {
      "anonymous": false,
      "inputs": [
        {
          "indexed": false,
          "internalType": "uint256",
          "name": "bookId",
          "type": "uint256"
        },
        {
          "indexed": false,
          "internalType": "bool",
          "name": "finished",
          "type": "bool"
        }
      ],
      "name": "SetFinished",
      "type": "event"
    },
    {
      "inputs": [
        {
          "internalType": "string",
          "name": "name",
          "type": "string"
        },
        {
          "internalType": "uint16",
          "name": "year",
          "type": "uint16"
        },
        {
          "internalType": "string",
          "name": "author",
          "type": "string"
        },
        {
          "internalType": "bool",
          "name": "finished",
          "type": "bool"
        }
      ],
      "name": "addBook",
      "outputs": [],
      "stateMutability": "nonpayable",
      "type": "function"
    },
    {
      "inputs": [],
      "name": "getFinishedBooks",
      "outputs": [
        {
          "components": [
            {
              "internalType": "uint256",
              "name": "id",
              "type": "uint256"
            },
            {
              "internalType": "string",
              "name": "name",
              "type": "string"
            },
            {
              "internalType": "uint256",
              "name": "year",
              "type": "uint256"
            },
            {
              "internalType": "string",
              "name": "author",
              "type": "string"
            },
            {
              "internalType": "bool",
              "name": "finished",
              "type": "bool"
            }
          ],
          "internalType": "struct Library.Book[]",
          "name": "",
          "type": "tuple[]"
        }
      ],
      "stateMutability": "view",
      "type": "function"
    },
    {
      "inputs": [],
      "name": "getUnfinishedBooks",
      "outputs": [
        {
          "components": [
            {
              "internalType": "uint256",
              "name": "id",
              "type": "uint256"
            },
            {
              "internalType": "string",
              "name": "name",
              "type": "string"
            },
            {
              "internalType": "uint256",
              "name": "year",
              "type": "uint256"
            },
            {
              "internalType": "string",
              "name": "author",
              "type": "string"
            },
            {
              "internalType": "bool",
              "name": "finished",
              "type": "bool"
            }
          ],
          "internalType": "struct Library.Book[]",
          "name": "",
          "type": "tuple[]"
        }
      ],
      "stateMutability": "view",
      "type": "function"
    },
    {
      "inputs": [
        {
          "internalType": "uint256",
          "name": "bookId",
          "type": "uint256"
        },
        {
          "internalType": "bool",
          "name": "finished",
          "type": "bool"
        }
      ],
      "name": "setFinished",
      "outputs": [],
      "stateMutability": "nonpayable",
      "type": "function"
    }
  ],
  "bytecode": "0x608060405234801561001057600080fd5b5061101f806100206000396000f3fe608060405234801561001057600080fd5b506004361061004c5760003560e01c80636aa835a81461005157806376d9e5a01461006d578063c079766d1461008b578063f2bc01ff146100a7575b600080fd5b61006b60048036038101906100669190610757565b6100c5565b005b6100756101a6565b6040516100829190610984565b60405180910390f35b6100a560048036038101906100a09190610b15565b6101b7565b005b6100af61030c565b6040516100bc9190610984565b60405180910390f35b3373ffffffffffffffffffffffffffffffffffffffff166001600084815260200190815260200160002060009054906101000a900473ffffffffffffffffffffffffffffffffffffffff1673ffffffffffffffffffffffffffffffffffffffff16036101a25780600083815481106101405761013f610bb4565b5b906000526020600020906005020160040160006101000a81548160ff0219169083151502179055507fa4f349f92993cc89f62be8c4bead1bd7d76d2e9c4d05da59739c6e0dd75f042c8282604051610199929190610c01565b60405180910390a15b5050565b60606101b2600161031d565b905090565b60008080549050905060006040518060a001604052808381526020018781526020018661ffff16815260200185815260200184151581525090806001815401808255809150506001900390600052602060002090600502016000909190919091506000820151816000015560208201518160010190816102379190610e36565b506040820151816002015560608201518160030190816102579190610e36565b5060808201518160040160006101000a81548160ff0219169083151502179055505050336001600083815260200190815260200160002060006101000a81548173ffffffffffffffffffffffffffffffffffffffff021916908373ffffffffffffffffffffffffffffffffffffffff1602179055507f10545577c692a22f651e69221c47ad4418e40434b36f4e2411bc54007aa8cbb933826040516102fd929190610f49565b60405180910390a15050505050565b6060610318600061031d565b905090565b60606000808054905067ffffffffffffffff81111561033f5761033e6109b0565b5b60405190808252806020026020018201604052801561037857816020015b6103656106a4565b81526020019060019003908161035d5790505b5090506000805b6000805490508110156105ee573373ffffffffffffffffffffffffffffffffffffffff166001600083815260200190815260200160002060009054906101000a900473ffffffffffffffffffffffffffffffffffffffff1673ffffffffffffffffffffffffffffffffffffffff1614801561042f57508415156000828154811061040c5761040b610bb4565b5b906000526020600020906005020160040160009054906101000a900460ff161515145b156105e1576000818154811061044857610447610bb4565b5b90600052602060002090600502016040518060a00160405290816000820154815260200160018201805461047b90610c59565b80601f01602080910402602001604051908101604052809291908181526020018280546104a790610c59565b80156104f45780601f106104c9576101008083540402835291602001916104f4565b820191906000526020600020905b8154815290600101906020018083116104d757829003601f168201915b505050505081526020016002820154815260200160038201805461051790610c59565b80601f016020809104026020016040519081016040528092919081815260200182805461054390610c59565b80156105905780601f1061056557610100808354040283529160200191610590565b820191906000526020600020905b81548152906001019060200180831161057357829003601f168201915b505050505081526020016004820160009054906101000a900460ff1615151515815250508383815181106105c7576105c6610bb4565b5b602002602001018190525081806105dd90610fa1565b9250505b808060010191505061037f565b5060008167ffffffffffffffff81111561060b5761060a6109b0565b5b60405190808252806020026020018201604052801561064457816020015b6106316106a4565b8152602001906001900390816106295790505b50905060005b828110156106985783818151811061066557610664610bb4565b5b60200260200101518282815181106106805761067f610bb4565b5b6020026020010181905250808060010191505061064a565b50809350505050919050565b6040518060a00160405280600081526020016060815260200160008152602001606081526020016000151581525090565b6000604051905090565b600080fd5b600080fd5b6000819050919050565b6106fc816106e9565b811461070757600080fd5b50565b600081359050610719816106f3565b92915050565b60008115159050919050565b6107348161071f565b811461073f57600080fd5b50565b6000813590506107518161072b565b92915050565b6000806040838503121561076e5761076d6106df565b5b600061077c8582860161070a565b925050602061078d85828601610742565b9150509250929050565b600081519050919050565b600082825260208201905092915050565b6000819050602082019050919050565b6107cc816106e9565b82525050565b600081519050919050565b600082825260208201905092915050565b60005b8381101561080c5780820151818401526020810190506107f1565b60008484015250505050565b6000601f19601f8301169050919050565b6000610834826107d2565b61083e81856107dd565b935061084e8185602086016107ee565b61085781610818565b840191505092915050565b61086b8161071f565b82525050565b600060a08301600083015161088960008601826107c3565b50602083015184820360208601526108a18282610829565b91505060408301516108b660408601826107c3565b50606083015184820360608601526108ce8282610829565b91505060808301516108e36080860182610862565b508091505092915050565b60006108fa8383610871565b905092915050565b6000602082019050919050565b600061091a82610797565b61092481856107a2565b935083602082028501610936856107b3565b8060005b85811015610972578484038952815161095385826108ee565b945061095e83610902565b925060208a0199505060018101905061093a565b50829750879550505050505092915050565b6000602082019050818103600083015261099e818461090f565b905092915050565b600080fd5b600080fd5b7f4e487b7100000000000000000000000000000000000000000000000000000000600052604160045260246000fd5b6109e882610818565b810181811067ffffffffffffffff82111715610a0757610a066109b0565b5b80604052505050565b6000610a1a6106d5565b9050610a2682826109df565b919050565b600067ffffffffffffffff821115610a4657610a456109b0565b5b610a4f82610818565b9050602081019050919050565b82818337600083830152505050565b6000610a7e610a7984610a2b565b610a10565b905082815260208101848484011115610a9a57610a996109ab565b5b610aa5848285610a5c565b509392505050565b600082601f830112610ac257610ac16109a6565b5b8135610ad2848260208601610a6b565b91505092915050565b600061ffff82169050919050565b610af281610adb565b8114610afd57600080fd5b50565b600081359050610b0f81610ae9565b92915050565b60008060008060808587031215610b2f57610b2e6106df565b5b600085013567ffffffffffffffff811115610b4d57610b4c6106e4565b5b610b5987828801610aad565b9450506020610b6a87828801610b00565b935050604085013567ffffffffffffffff811115610b8b57610b8a6106e4565b5b610b9787828801610aad565b9250506060610ba887828801610742565b91505092959194509250565b7f4e487b7100000000000000000000000000000000000000000000000000000000600052603260045260246000fd5b610bec816106e9565b82525050565b610bfb8161071f565b82525050565b6000604082019050610c166000830185610be3565b610c236020830184610bf2565b9392505050565b7f4e487b7100000000000000000000000000000000000000000000000000000000600052602260045260246000fd5b60006002820490506001821680610c7157607f821691505b602082108103610c8457610c83610c2a565b5b50919050565b60008190508160005260206000209050919050565b60006020601f8301049050919050565b600082821b905092915050565b600060088302610cec7fffffffffffffffffffffffffffffffffffffffffffffffffffffffffffffffff82610caf565b610cf68683610caf565b95508019841693508086168417925050509392505050565b6000819050919050565b6000610d33610d2e610d29846106e9565b610d0e565b6106e9565b9050919050565b6000819050919050565b610d4d83610d18565b610d61610d5982610d3a565b848454610cbc565b825550505050565b600090565b610d76610d69565b610d81818484610d44565b505050565b5b81811015610da557610d9a600082610d6e565b600181019050610d87565b5050565b601f821115610dea57610dbb81610c8a565b610dc484610c9f565b81016020851015610dd3578190505b610de7610ddf85610c9f565b830182610d86565b50505b505050565b600082821c905092915050565b6000610e0d60001984600802610def565b1980831691505092915050565b6000610e268383610dfc565b9150826002028217905092915050565b610e3f826107d2565b67ffffffffffffffff811115610e5857610e576109b0565b5b610e628254610c59565b610e6d828285610da9565b600060209050601f831160018114610ea05760008415610e8e578287015190505b610e988582610e1a565b865550610f00565b601f198416610eae86610c8a565b60005b82811015610ed657848901518255600182019150602085019450602081019050610eb1565b86831015610ef35784890151610eef601f891682610dfc565b8355505b6001600288020188555050505b505050505050565b600073ffffffffffffffffffffffffffffffffffffffff82169050919050565b6000610f3382610f08565b9050919050565b610f4381610f28565b82525050565b6000604082019050610f5e6000830185610f3a565b610f6b6020830184610be3565b9392505050565b7f4e487b7100000000000000000000000000000000000000000000000000000000600052601160045260246000fd5b6000610fac826106e9565b91507fffffffffffffffffffffffffffffffffffffffffffffffffffffffffffffffff8203610fde57610fdd610f72565b5b60018201905091905056fea26469706673582212206339c82bde8573b716cf4d9334783a8038ac9352d242c0d9169f7ad9cb4adb0e64736f6c63430008180033",
  "linkReferences": {},
  "deployedLinkReferences": {}
}